:100000000C9442010C9453160C942C160C946A0117
:100010000C946A010C946A010C946A010C9499176F
:100020000C946A010C946A010C946A010C946A01A4
:100030000C946A010C9445180C946A010C946A01A2
:100040000C94E2150C946A010C946A010C946A01F8
:100050000C946A010C946A010C946A010C946A0174
:100060000C947A160C946A0100407A10F35A00A09E
:10007000724E18090010A5D4E80000E87648170071
:1000800000E40B54020000CA9A3B000000E1F505B1
:10009000000080969800000040420F000000A086FB
:1000A00001000000102700000000E803000000002D
:1000B0006400000000000A000000000001000000D1
:1000C00000002C76D888DC674F0823DFC1DFAE59EB
:1000D000E1B1B796E5E3E453C63AE651997696E87E
:1000E000E6C28426EB898C9B62ED407C6FFCEFBC02
:1000F0009C9F40F2BAA56FA5F490055A2AF75C932D
:100100006B6CF9676DC11BFCE0E40D47FEF520E662
:10011000B500D0ED902E0300943577050080841E45
:10012000080000204E0A000000C80C333333330FA0
:10013000986E12831141EF8D2114893BE65516CF3D
:10014000FEE6DB18D1844B381BF77C1D901DA4BB49
:10015000E424203284725E228100C9F124ECA1E5FE
:100160003D275554430050535400504454004D53C0
:1001700054004D4454004853540048445400474DE3
:1001800054004553540045445400435354004344E1
:10019000540041535400414B535400414B445400CC
:1001A00041445400A0014CFFFFFF9B0120FEFFFFD4
:1001B0009601E4FDFFFF920110FFFFFF8E01D4FEC8
:1001C000FFFF8A0198FEFFFF860110FFFFFF8201FB
:1001D000D4FEFFFF7E01000000007A01E4FDFFFF76
:1001E0007601A8FDFFFF720198FEFFFF6E015CFE25
:1001F000FFFF6A015CFEFFFF660120FEFFFF620158
:10020000000000001F1C1F1E1F1E1F1F1E1F1E1F81
:1002100068683A6D6D3A7373004D4D4D204444202B
:10022000595959590000000000240027002A0000F5
:10023000000000250028002B0000000000230026FD
:10024000002900040404040404040402020202025B
:10025000020303030303030102040810204080018A
:100260000204081020010204081020000000080009
:10027000020100000304070000000000000000006D
:100280009819482311241FBECFEFD8E0DEBFCDBFA1
:1002900013E0A0E0B1E0EAE6FBE502C005900D92B4
:1002A000AC35B107D9F724E0ACE5B3E001C01D924D
:1002B000A13FB207E1F711E0C1E4D1E004C021970A
:1002C000FE010E94E027C034D107C9F70E949A1AA4
:1002D0000C94A82D0C9400000F931F93CF93DF93E1
:1002E0008C01DB011C929C0190E0F9014115510544
:1002F000E1F1E90189919E018823B9F16FEC680F62
:100300006930D8F42AE0808130ED380F3A30D8F4E3
:100310009C91929F902D11249C9390538191980FC2
:100320009C934150510991E071F7CF01801B910BD3
:10033000DF91CF911F910F9108958033B1F6415015
:10034000510991E0D2CF8E3281F49F012F5F3F4F50
:10035000BF01640F751FF9012617370731F02F5FB2
:100360003F4F508150535A30B0F39111DECF90E09F
:1003700080E0DECF089508958230910538F0880F2F
:10038000991F880F991F05970197F1F70895AF926C
:10039000BF92CF92DF92EF92FF920F931F93CF9372
:1003A000DF93EC0188819981892B89F06EBD0DB4B2
:1003B00007FEFDCFBEB48B2DDF91CF911F910F9122
:1003C000FF90EF90DF90CF90BF90AF900895888519
:1003D000998511E0892B09F010E8AA24A394862FAF
:1003E000812309F0A12C062F2C813D814E815F8154
:1003F00060E271EA87E090E00E947F27F22EB02E43
:10040000E12CC22ED12CFF2019F0C6010E94BC01A4
:100410008A85877F09F042C08D858F3F89F0902FB4
:10042000912381E009F480E08A1551F0EF85F88985
:100430008F89992369F19081892B8083AA24A394C1
:10044000E989FA898081998D892B8083FF2019F0B1
:10045000C6010E94BC018E858F3F39F0EB89FC8973
:100460008081988D892309F0E12AE989FA899081B0
:10047000898D8095892380838E858F3F09F0BE2CDE
:1004800088859985892BB9F5110F1111BCCF93CFB0
:100490009081809589238083A12CD2CFE989FA8924
:1004A0008081998D892B8083FF2019F0C6010E94DD
:1004B000BC018D858F3F49F0EF85F8898F89902F9A
:1004C0009123A9F09081892B8083E989FA89908111
:1004D000898D8095892380838E858F3F69F2EB8992
:1004E000FC898081988D892339F2E12AC5CF9081DA
:1004F00080958923E9CF1695C8CF833081F028F401
:10050000813099F08230A9F008958730A9F08830C1
:10051000C9F08430B1F4809180008F7D03C0809158
:1005200080008F7780938000089584B58F7784BD95
:10053000089584B58F7DFBCF8091B0008F77809335
:10054000B00008958091B0008F7DF9CFCF93DF93F5
:10055000282F30E0F901E559FD4F8491F901E95A5E
:10056000FD4FD491F901ED5BFD4FC491CC23A1F077
:1005700081110E947D02EC2FF0E0EE0FFF1FE75C7F
:10058000FD4FA591B491EC91ED2381E090E009F449
:1005900080E0DF91CF91089580E090E0FACFCF9393
:1005A000DF93EC018A810E94A60221E0892B09F4E5
:1005B00020E08C81281779F03FB7F89480912B04C4
:1005C00090912C04A0912D04B0912E043FBF8B87F5
:1005D0009C87AD87BE878FB7F89440912B045091CC
:1005E0002C0460912D0470912E048FBF8B859C8507
:1005F000AD85BE85481B590B6A0B7B0B89859A8597
:10060000B0E0A0E084179507A607B70740F48B81F8
:10061000281729F02B83822FDF91CF9108952C8307
:1006200020E0F9CF10928E0410928D048091CD04B9
:100630009091CE040E94CF02882331F082E090E0B6
:1006400090938E0480938D048091CF049091D00478
:100650000E94CF02882331F083E090E090938E04D3
:1006600080938D048091D1049091D2040E94CF0296
:10067000882331F081E090E090938E0480938D0484
:1006800080918D0490918E0408951F93CF93DF93F2
:10069000282F30E0F901E559FD4F8491F901E95A1D
:1006A000FD4FD491F901ED5BFD4FC491CC23A9F02E
:1006B000162F81110E947D02EC2FF0E0EE0FFF1F3C
:1006C000E15DFD4FA591B4918FB7F894EC911111B4
:1006D00008C0D095DE23DC938FBFDF91CF911F91AF
:1006E0000895DE2BF8CFFC0183858F3F19F061E080
:1006F0000C9445030895FC0180819181892B39F088
:10070000A281B3819C9111968C919CBD8DBD8385F6
:100710008F3F19F060E00C9445030895CF92DF926B
:10072000EF92FF920F931F93CF93DF938C01EB0116
:100730006A0179010E947B036881C8010E94C70198
:10074000E601EC0CFD1C6FEFC8010E94C701899304
:10075000CE15DF05C1F7C8010E94730381E0DF9168
:10076000CF911F910F91FF90EF90DF90CF90089560
:10077000CF93DF9390E0FC01E95AFD4F24918D5B0C
:100780009D4FFC0184918823C9F090E0880F991F48
:10079000FC01EB5DFD4FA591B491FC01E15DFD4FC6
:1007A000C591D49161110DC09FB7F8948C9120959B
:1007B00082238C938881282328839FBFDF91CF9148
:1007C0000895623051F49FB7F8943C91822F809540
:1007D00083238C93E8812E2BEFCF8FB7F894EC9185
:1007E0002E2B2C938FBFEACF3FB7F8948091B103A3
:1007F0009091B203A091B303B091B40326B5A89B26
:1008000005C02F3F19F00196A11DB11D3FBFBA2FA2
:10081000A92F982F8827BC01CD01620F711D811D62
:10082000911D42E0660F771F881F991F4A95D1F7E7
:1008300008958F929F92AF92BF92CF92DF92EF92E4
:10084000FF924B015C010E94F4036B017C010E944A
:10085000F4036C197D098E099F09683E7340810578
:100860009105A8F321E0821A9108A108B10888EE49
:10087000C80E83E0D81EE11CF11C81149104A10470
:10088000B10429F7FF90EF90DF90CF90BF90AF9029
:100890009F908F9008950895AF92BF92CF92DF926C
:1008A000EF92FF920F931F93CF93DF936C017B0125
:1008B0008B01040F151FEB015E01AE18BF08C017B6
:1008C000D10759F06991D601ED91FC910190F08129
:1008D000E02DC6010995892B79F7C501DF91CF91EC
:1008E0001F910F91FF90EF90DF90CF90BF90AF904E
:1008F0000895DC0150E0E4E0F2E081E0861730F496
:100900009491490F511D8F5F3196F8CF633038F0C5
:10091000CD0183709927892B11F44F5F5F4F9D01A3
:100920002D5F3F4F36952795369527956DE671E0FB
:10093000A69FC001A79F900DB69F900D112401970F
:10094000820F931F840F951F0895EF92FF920F93CC
:100950001F93CF93DF93EC0188814A81698190E0F6
:100960000E9479049C01A8E1B0E00E94A1272B819C
:100970007B018C01E20EF11C011D111DA8019701E4
:10098000ACE3B0E00E9435272C817B018C01E20EA4
:10099000F11C011D111DA80197010E9435272D8111
:1009A000620F711D811D911DDF91CF911F910F91DC
:1009B000FF90EF900895089520918303260F332729
:1009C000331F21323105ECF420912504FC0190E025
:1009D00080E0243069F082E00895A09183032191A2
:1009E000AC014D595C4FA40FB52FB11D2C9301964E
:1009F000861798F380918303680F6093830380E0E8
:100A0000089581E008951092250481E08093040404
:100A10001092FF0361E082E10E94450361E083E1FF
:100A20000E944503E9EBF0E080818E7F8083808126
:100A30008D7F808388E48093B80085E48093BC0038
:100A400008951092BA031092B9031092BC03109249
:100A5000DE030E9403058AEB91E09093B803809334
:100A6000B7038BEB91E09093B6038093B5030895A1
:100A7000CF93DF9391E0909362038823B9F0C09104
:100A8000B800D091BA008091BC008A7B8093BC00F2
:100A900060E082E10E94450360E083E10E9445033B
:100AA0000E940305D093BA00C093B800DF91CF91A4
:100AB00008958F929F92AF92BF92CF92DF92EF9262
:100AC000FF920F931F93CF93DF93D82FC62F142F2E
:100AD000613208F09CC00E94F4036B017C0180919C
:100AE000250481116FC081E08093250410930404D4
:100AF0009FEF90930304109202049C0F90930104C3
:100B00008093000480910004DD0FD82BD093000463
:100B10008091FF03813009F07CC01092FF030E9496
:100B2000F4036B017C01809100048093BB008091F1
:100B3000270490912804A0912904B0912A04892BBC
:100B40008A2B8B2BA1F00E94F403009127041091B3
:100B500028042091290430912A046C197D098E09FA
:100B60009F09061717072807390708F44CC080911A
:100B7000BC0083FDD8CF85EC8093BC000E94F403B9
:100B80006B017C0180912504813009F444C080917F
:100B900002048C1710F4C0910204EFEDF3E0A5E01D
:100BA000B4E080E08C1359C08C2FDF91CF911F915E
:100BB0000F91FF90EF90DF90CF90BF90AF909F90FC
:100BC0008F9008958091270490912804A091290482
:100BD000B0912A04892B8A2B8B2B09F480CF0E9499
:100BE000F4038090270490902804A0902904B090EA
:100BF0002A046C197D098E099F0986169706A80696
:100C0000B90608F06CCF809126040E943805C0E038
:100C1000CBCF85EEB1CF8091270490912804A0918D
:100C20002904B0912A04892B8A2B8B2B09F4AACF93
:100C30000E94F403009127041091280420912904B4
:100C400030912A046C197D098E099F090617170730
:100C50002807390708F096CFD6CF91919D938F5FE3
:100C6000A1CF8F929F92AF92BF92CF92DF92EF92DD
:100C7000FF920F931F93CF93DF93D091DE03D13276
:100C800008F0D7C0182FC091DD030E94F4036B0158
:100C90007C018091250481116BC082E08093250442
:100CA000109304048FEF8093030410920204D093F6
:100CB0000104ADEBB3E0EFEDF3E080E0D81391C0B9
:100CC0001092000480910004CC0FC82BC093000444
:100CD0008091FF03813009F088C01092FF030E94C9
:100CE000F4036B017C01809100048093BB00809130
:100CF000270490912804A0912904B0912A04892BFB
:100D00008A2B8B2BA1F00E94F403009127041091F1
:100D100028042091290430912A046C197D098E0938
:100D20009F09061717072807390708F442C0809162
:100D3000BC0083FDD8CF85EC8093BC000E94F403F7
:100D40006B017C0180912504823009F450C08091B0
:100D500003048F3F09F46FC080910304803209F4CB
:100D60006CC080910304803309F469C084E026C01C
:100D70008091270490912804A0912904B0912A041D
:100D8000892B8A2B8B2B09F484CF0E94F40380904B
:100D9000270490902804A0902904B0902A046C198C
:100DA0007D098E099F0986169706A806B90608F0E0
:100DB00070CF809126040E94380585E01092BC0314
:100DC0001092DE031092BB03DF91CF911F910F9120
:100DD000FF90EF90DF90CF90BF90AF909F908F905B
:100DE00008959D9191938F5F69CF85EEA5CF8091F6
:100DF000270490912804A0912904B0912A04892BFA
:100E00008A2B8B2B09F49ECF0E94F40300912704B8
:100E1000109128042091290430912A046C197D092D
:100E20008E099F09061717072807390708F08ACF88
:100E3000C0CF81E0C3CF80E0C1CF82E0BFCF83E0ED
:100E4000BDCF1F93CF93DF93EA01122FDC011196E0
:100E50008D919C91DC01ED91FC910280F381E02D5C
:100E60000995C817D90729F4812F0E94310691E00E
:100E7000811190E0892FDF91CF911F910895CF9339
:100E8000DF93EC018B818823A1F0888191E090931E
:100E9000BB038093DD031092BC031092DE0381E05C
:100EA0000E94310691E0811190E0892FDF91CF916E
:100EB00008950E94210581E08B83CE010E943F07A7
:100EC000982F8111E2CFF1CF0895E091BA0380917C
:100ED000B903E81730F4F0E0EB5FFB4F808190E05E
:100EE00008958FEF9FEF08959091BA038091B90311
:100EF0002FEF3FEF981748F4E92FF0E0EB5FFB4F3F
:100F0000208130E09F5F9093BA03C90108958091DA
:100F1000B9039091BA03891B990B0895CF92DF9280
:100F2000EF92FF920F931F93CF93DF937C01CB013E
:100F30008A012091BB03222389F0EB016B01C40ECF
:100F4000D51ECC15DD0569F06991D701ED91FC91B5
:100F50000190F081E02DC7010995F3CF642F0E9425
:100F6000DC04C801DF91CF911F910F91FF90EF90AA
:100F7000DF90CF900895CF93DF931F92CDB7DEB768
:100F800069832091BB032223F9F02091DE032032F4
:100F900058F021E030E0FC013383228390E080E0D0
:100FA0000F90DF91CF9108958091BC03E82FF0E07E
:100FB000E354FC4F998190838F5F8093BC038093AF
:100FC000DE0381E090E0ECCF61E0CE0101960E946B
:100FD000DC04F7CF90E080E00895CF93DF93CDB7A6
:100FE000DEB789A59AA5ABA5BCA5EFE5F4E04989D4
:100FF0005A896B897C8941835283638374834D8DC5
:101000005E8D6F8D78A1458756876787708B4D8978
:101010005E896F89788D418752876387748785835E
:101020009683A783B087EFE3F4E049A15AA16BA1AF
:101030007CA141835283638374834DA55EA56FA514
:1010400078A9458756876787708B4DA15EA16FA1F0
:1010500078A5418752876387748785839683A783A2
:10106000B087DF91CF9108951F93CF93DF93EC0169
:10107000142F8881998121E02093BB0328E62093D7
:10108000DD031092BC031092DE03DC01ED91FC91B4
:101090000190F081E02D099588819981DC01ED9125
:1010A000FC910190F081E02D612F099581E00E9473
:1010B00031068A83DF91CF911F9108954F925F92FD
:1010C0006F927F928F929F92AF92BF92CF92DF9258
:1010D000EF92FF92CF93DF93EC016A017B012CE347
:1010E000822E912CA12CB12CCB01BA01A501940127
:1010F0000E947F276D83CA01B901A50194010E9456
:101100007F276C83C701B60120E13EE040E050E05C
:101110000E947F27CA01B90128E130E040E050E099
:101120000E947F276B83C701B60120E831E541E0CB
:1011300050E00E947F27188263E9862E6EEF962E7C
:10114000AA24AA94BA2C8881782F7370C12CD12C30
:101150007601C394772319F0C12CD12C7601260196
:1011600037019DE6490E91E0591E611C711C241542
:1011700035054605570578F0240135014C185D0802
:101180006E087F08730162012C0D3D1D4E1D5F1D11
:101190008F5F8883D8CF81E089836981862F8150D2
:1011A000990BFC01EC5FFD4FE491711103C06230BB
:1011B00009F4EF5F8E2F90E0B0E0A0E02817390728
:1011C0004A075B0738F0281B390B4A0B5B0B6F5F34
:1011D0006983E3CF2F5F2A83DF91CF91FF90EF9058
:1011E000DF90CF90BF90AF909F908F907F906F9047
:1011F0005F904F90089508954F925F926F927F9203
:101200008F929F92AF92BF92CF92DF92EF92FF9216
:10121000CF93DF9300D000D000D0CDB7DEB79E8350
:101220008D832A013B012FB7F89460912B047091B4
:101230002C0480912D0490912E042FBFED81FE810E
:10124000C28CD38CE48CF58C6C197D098E099F09B6
:101250000E94E12520E030E04AE754E40E94532850
:101260006B017C012FB7F89480912B0490912C0492
:10127000A0912D04B0912E042FBFED81FE81828FAD
:10128000938FA48FB58FA3019201618172818381B5
:1012900094810E94E6274B015C01ED81FE8125814E
:1012A0003681478150850E94422669837A838B83E9
:1012B0009C83ED81FE81818D81508E3F08F07BC043
:1012C0002185328543855485C501B4010E9442269B
:1012D000A70196010E944226ED81FE81258936896B
:1012E0004789508D0E94E7274B015C01ED81FE810B
:1012F000858A968AA78AB08EA30192016189728934
:10130000838994890E94E627ED81FE8125853685B3
:10131000478550890E944226A70196010E944226D5
:101320006B017C01ED81FE81418A528A638A748A55
:10133000A501940169817A818B819C810E94E727B4
:10134000A70196010E94E72720E030E048E452E43C
:101350000E94E7276B017C0120E030E04FE753E477
:101360000E94F4286FEF87FF0EC020E030E0A90153
:10137000C701B6010E94DC2560E0181624F4C701FD
:10138000B6010E94C528ED81FE81618F26960FB6B9
:10139000F894DEBF0FBECDBFDF91CF91FF90EF90ED
:1013A000DF90CF90BF90AF909F908F907F906F9085
:1013B0005F904F90089560E070E0CB0189CFFC0111
:1013C000268D222319F080810C94450308951092F4
:1013D000B2001092600381E08093610360E08FE5CA
:1013E00094E00E94DF0960E08FE394E00C94DF0951
:1013F000CF93DF93EC01198A1A8A1B8A1C8A1D8AF3
:101400001E8A1F8A188E198E1A8E1B8E1C8E1D8E98
:1014100061E088810E94B80360E08881DF91CF910C
:101420000C944503CF93DF93EC0189E491E0998319
:101430008883FE01E55BFF4F80819181009739F041
:10144000DC01ED91FC910280F381E02D0995FE0114
:10145000E35BFF4F80819181009739F0DC01ED91D2
:10146000FC910280F381E02D0995C15BDF4F8881FB
:101470009981009749F0DC01ED91FC910280F381A4
:10148000E02DDF91CF910994DF91CF9108950F93D3
:101490001F93CF93DF9300D0CDB7DEB74A83DC0133
:1014A000ED91FC913097F9F06983848195810297E1
:1014B00098F0808191E09093BB038093DD031092BC
:1014C000BC031092DE0321E042E050E0BE016F5FFA
:1014D0007F4FCF010E9421070F900F90DF91CF9196
:1014E0001F910F9108956F776983FC010281138129
:1014F000C8010E947B036981C8010E94C7016A81FB
:10150000C8010E94C701C8010E947303E5CFBF92C2
:10151000CF92DF92EF92FF920F931F93CF93DF93BF
:10152000CDB7DEB762970FB6F894DEBF0FBECDBF62
:101530006C01DC018D919C9121E02093BB0328E696
:101540002093DD031092BC031092DE03DC01ED91C9
:10155000FC910190F081E02D60E0099581E00E940E
:101560003106F6018283882341F140E050E0BA0160
:10157000CE0101960E945E0886E0FE013196DE01F2
:101580001D9601900D928A95E1F72D853E854F8538
:10159000588969897A8980E090E062960FB6F8945C
:1015A000DEBF0FBECDBFDF91CF911F910F91FF9096
:1015B000EF90DF90CF90BF90089541E067E088E61C
:1015C0000E9459051092BA038093B9038730C1F085
:1015D00084E0D60112968C9340E050E0BA01CE012F
:1015E00001960E945E0886E0FE013196DE011796A4
:1015F00001900D928A95E1F786E0FE013796BFCF04
:10160000F60180819181DC01ED91FC910284F385EA
:10161000E02D09958F77282F30E0F4E03595279558
:10162000FA95E1F7922F990F990F022F091B000FDE
:10163000080FF60180819181DC01ED91FC9102841B
:10164000F385E02D09959C01A4E035952795AA9591
:10165000E1F72F703327922F990F990FF22EF91A75
:10166000FF0CF80EF60180819181DC01ED91FC9177
:101670000284F385E02D099586FF78C0982F9F712D
:10168000292F30E0E4E035952795EA95E1F7322FF0
:10169000330F330F122F131B110F190F85FD145F1A
:1016A000F60180819181DC01ED91FC910284F3854A
:1016B000E02D0995F60180819181DC01ED91FC918D
:1016C0000284F385E02D09959C0144E0359527952A
:1016D0004A95E1F72F703327922F990F990FE22E39
:1016E000E91AEE0CE80EF60180819181DC01ED91A2
:1016F000FC910284F385E02D0995B82EF6018081D6
:101700009181DC01ED91FC910284F385E02D099536
:10171000AC0164E0559547956A95E1F74F70552700
:10172000942F990F990F242F291B220F280F30E097
:10173000A9014053584FB7FE02C04C595F4F8B2D43
:101740008F77405D4D87282F30E094E035952795C1
:101750009A95E1F7922F990F990F291B220F280FC5
:101760002E87EF86188BF98A0A8B0FCF9C0174E0C5
:10177000359527957A95E1F72F703327922F990F9A
:10178000990F122F191B110F180F8ACF5F926F92AA
:101790007F928F929F92AF92BF92CF92DF92EF9201
:1017A000FF920F931F93CF93DF93DC011496ED917B
:1017B000FC911597EF2B09F465C069013A01EC0122
:1017C000888191E09093BB038093DD031092BC036A
:1017D0001092DE0320E041E050E0CD010E9421079D
:1017E000582E882309F44EC0F12CE12C8C819D8168
:1017F00086010E191F098017910708F48C0141E03A
:10180000C601801B910BE816F90608F440E0602F32
:10181000013208F060E288810E9459051092BA03F3
:101820008093B9038017110669F543018E0C9F1C44
:101830005401C501881999098017910768F48981B5
:101840009A81DC01ED91FC910284F385E02D0995EC
:10185000F50181935F01EDCFE00EF11EEC14FD0464
:1018600028F2852DDF91CF911F910F91FF90EF907E
:10187000DF90CF90BF90AF909F908F907F906F90B0
:101880005F900895512CEDCF4F925F926F927F92AF
:101890008F929F92AF92BF92CF92DF92EF92FF9280
:1018A0000F931F93CF93DF9300D01F92CDB7DEB776
:1018B0008C01FC0180819181009709F4ADC02AEF71
:1018C000298323E030E0AE014F5F5F4FBA010E94F1
:1018D000C60B8981CA80D12CF12CE12CFE2CED2C79
:1018E000DC2CCC24E82A8B81C82A60E070E080ECF4
:1018F0009FE7C114D104F0E8EF06F10409F478C0C1
:10190000F8014788508CA701960187E055954795C7
:10191000379527958A95D1F7712C612CD301C20197
:10192000880F991FAA1FBB1F281B390B4A0B5B0B83
:10193000A18DB28D0E9440274B015C01CD2CDE2C85
:10194000EF2CFF24E7FCFA94C701B601641975096E
:10195000860997099B01AC010E94B0279B01AC014D
:10196000ACE05595479537952795AA95D1F7A38D66
:10197000B48D0E9440272B013C01C501B40120E039
:1019800038E040E050E00E94162769017A01C30167
:10199000B20120E030E440E050E00E9416272C0D18
:1019A0003D1D4E1D5F1DF80183899489A589B68967
:1019B000280F391F4A1F5B1F2787308B418B528BA3
:1019C000A5E0B0E00E94352760587F4F8F4F9F4FB2
:1019D00020E031E040E050E00E941627CA01B90142
:1019E0000E94E32520E030E048EC52E40E945328B6
:1019F0000F900F900F90DF91CF911F910F91FF905B
:101A0000EF90DF90CF90BF90AF909F908F907F909E
:101A10006F905F904F9008958AEF898323E030E0C4
:101A2000AE014F5F5F4FBA01828193810E948E03A6
:101A300050CFCF93DF9300D0CDB7DEB7FC018081CC
:101A40009181698322E030E0AE014F5F5F4FBA01C0
:101A5000009761F00E94C60B89819A819827892797
:101A600098270F900F90DF91CF91089582819381F5
:101A70000E948E03F1CF0E94190D9827892798277D
:101A80000895CF93DF931F92CDB7DEB7FC0180811D
:101A90009181698321E030E0AE014F5F5F4FBA0171
:101AA000009739F00E94C60B89810F90DF91CF918A
:101AB0000895828193810E948E03F6CFCF93DF93A6
:101AC000EC0160E08E810E94450361E08E810E94FE
:101AD000450360E08E810E9445038BE891E0019709
:101AE000F1F7DF91CF910895CF92DF92EF92FF92BD
:101AF0000F931F93CF93DF936C017C0187E0E80E77
:101B0000F11CD0E0C0E0062F10E0B8010C2E02C09E
:101B1000759567950A94E2F76170F70181917F01ED
:101B20000E9445032196C430D10579F7C601DF91A3
:101B3000CF911F910F91FF90EF90DF90CF900C9479
:101B40005E0DCF92DF92EF92FF920F931F93CF9390
:101B5000DF93EC01F62E642F8C810E9445038D816A
:101B60008F3F19F060E00E9445030F2D10E08F8534
:101B700084FF25C06E0187E0C80ED11CF12CE12C3A
:101B8000B8010E2C02C0759567950A94E2F7617052
:101B9000F60181916F010E944503FFEFEF1AFF0AE2
:101BA00088E0E816F10461F7CE01DF91CF911F9133
:101BB0000F91FF90EF90DF90CF900C945E0DB801E5
:101BC00084E0759567958A95E1F7CE010E94740DC2
:101BD0006F2DCE01DF91CF911F910F91FF90EF906C
:101BE000DF90CF900C94740D41E00E94A10D81E034
:101BF00090E0089540E00C94A10D443008F043E0DB
:101C0000FC012389421710F04FEF420FFC01E40F53
:101C1000F11D2489620F60680C94FA0D61E00E9446
:101C2000FA0D8BE39FE10197F1F70895CF93DF93CE
:101C3000613029F09091E40498609093E4046093FB
:101C4000E8041092E90490E49093EA048093EB0492
:101C5000805C8093EC0461E08091D9040E94B80319
:101C60008091DA048F3F19F061E00E94B80361E0CF
:101C70008091DB040E94B803C5EDD4E09E01255D90
:101C800034408091E40484FD0BC084E090E0219610
:101C90002817390744F461E08E810E94B803EECF23
:101CA00088E090E0F4CF8BE39DE00197F1F760E0EE
:101CB0008091D9040E94450360E08091DB040E947A
:101CC00045038091DA048F3F19F060E00E944503DC
:101CD0006091E40464FD3CC063E085ED94E00E9403
:101CE000740DCBE4D6E4CE010197F1F763E085ED06
:101CF00094E00E94740D2197F1F763E085ED94E084
:101D00000E94740D83E592E00197F1F762E085EDA2
:101D100094E00E94740D6091E404606285ED94E0AB
:101D20000E94FA0D84E08093E5046CE085ED94E078
:101D30000E94FA0D85ED94E00E940E0E82E08093E1
:101D4000E60466E085ED94E0DF91CF910C94FA0D06
:101D5000606285ED94E00E94FA0D8BE496E40197B1
:101D6000F1F76091E404606285ED94E00E94FA0D61
:101D700083E592E00197F1F76091E404606285EDFC
:101D800094E00E94FA0DC7CFCF92DF92EF92FF92BC
:101D9000C090A703D090A803E090A903F090AA03F5
:101DA00080915E040E94A60220915D04892B19F1A6
:101DB000211103C081E080935D0480915D0488233C
:101DC00031F0B701A6018FE394E00E94FC08409136
:101DD000AB035091AC036091AD037091AE03809161
:101DE0007D04882361F18FE594E0FF90EF90DF9010
:101DF000CF900C94FC08222301F310925D04109202
:101E000050041092510410925204109253041092F4
:101E100054041092550410925604109257041092D4
:101E200058041092590410925A0410925B041092B4
:101E30005C0460E080913F040E944503BECFFF90A8
:101E4000EF90DF90CF9008950F931F93CF938C0165
:101E5000DC018D919C9121E02093BB0328E6209327
:101E6000DD031092BC031092DE03DC01ED91FC91C6
:101E70000190F081E02D099581E00E943106C82F84
:101E8000F8018283811120C041E061E088E60E9470
:101E900059051092BA038093B903813049F084E068
:101EA000D80112968C938C2FCF911F910F9108958A
:101EB000F80180819181DC01ED91FC910284F38530
:101EC000E02D0995C82FEFCFC0E0EDCFDF92EF9264
:101ED000FF920F931F93CF93DF93EC018B016FE081
:101EE0000E94240F482F4F776FE0CE010E943408E4
:101EF0008881998121E02093BB0328E62093DD03AC
:101F00001092BC031092DE03DC01ED91FC91019074
:101F1000F081E02D60E00995A881B981F801258163
:101F20003AE0F32E822F6F2D0E94C027682F660F94
:101F3000680F660F620FED91FC9111970190F0818F
:101F4000E02DCD010995A881B981F8012481822F66
:101F50006F2D0E94C027682F660F680F660F620FF3
:101F6000ED91FC9111970190F081E02DCD01099543
:101F7000A881B981F8012381822F6F2D0E94C0278B
:101F8000682F660F680F660F620FED91FC91119735
:101F90000190F081E02DCD010995D8018C919CE94B
:101FA000F92EF80E20E8D22E843610F4F82ED12C1B
:101FB000F8014281618190E00E947904069667E011
:101FC00070E00E94CC27682F811101C067E08881F2
:101FD0009981DC01ED91FC910190F081E02D099552
:101FE000A881B981F80122818AE0E82E822F6E2D26
:101FF0000E94C027682F660F680F660F620FED9171
:10200000FC9111970190F081E02DCD010995A881F7
:10201000B981F8012181822F6E2D0E94C027682F7F
:10202000660F680F660F620F6D29ED91FC91119795
:102030000190F081E02DCD010995A881B9818F2D06
:102040006E2D0E94C027682F660F680F660F6F0DF8
:10205000ED91FC9111970190F081E02DCD01099552
:1020600081E00E9431068A83DF91CF911F910F9109
:10207000FF90EF90DF9008950F931F93CF93DF931E
:102080000FE814E0D0E0C0E0F80161918F01CE01CB
:102090000E9408272196CC32D105B1F78DB79EB7A3
:1020A0008C970FB6F8949EBF0FBE8DBFADB7BEB76D
:1020B00011968CE2EFE8F4E001900D928A95E1F739
:1020C000E091D304F091D4040995EDB7FEB7BC9626
:1020D0000FB6F894FEBF0FBEEDBFDF91CF911F91F9
:1020E0000F9108950F931F93CF93DF930FE814E0A0
:1020F000D0E0C0E0CE010E940027F80181938F015B
:102100002196CC32D105B1F7DF91CF911F910F917C
:102110000C943C10FB0101900020E9F73197AF01CE
:10212000461B570BDC01ED91FC910280F381E02D01
:1021300009948F929F92AF92BF92EF92FF920F936A
:102140001F93CF93DF93CDB7DEB7A1970FB6F89467
:10215000DEBF0FBECDBF7C01FA01CB0119A2223038
:1021600008F42AE08E010F5D1F4F822E912CB12CB6
:10217000A12CBF01A50194010E947F27F901CA018A
:102180006A300CF5605DD8016E938D01232B242BF2
:10219000252B79F790E080E0109721F0BD01C70171
:1021A0000E948A10A1960FB6F894DEBF0FBECDBF75
:1021B000DF91CF911F910F91FF90EF90BF90AF9063
:1021C0009F908F900895695CDECF6115710511F0C5
:1021D0000C948A1090E080E008956F927F928F9225
:1021E0009F92AF92BF92CF92DF92EF92FF920F93A6
:1021F0001F93CF93DF93CDB7DEB728970FB6F89430
:10220000DEBF0FBECDBF6C01962E842EADB6BEB61E
:1022100083E190E0861B910901962DB73EB7281BFC
:10222000390B0FB6F8943EBF0FBE2DBF8DB79EB7CA
:1022300001967C01F601658976898789908D9E01DA
:102240002F5F3F4F3901890122E045E00E9458236A
:102250007F926F92F601818D1F928F9389E591E0B5
:102260009F938F93FF92EF920E94072B482D692D29
:1022700085ED94E00E94FD0DB70185ED94E00E948C
:10228000E5102DB73EB7285F3F4F0FB6F8943EBF1D
:102290000FBE2DBF0FB6F894BEBE0FBEADBE2896C2
:1022A0000FB6F894DEBF0FBECDBFDF91CF911F9167
:1022B0000F91FF90EF90DF90CF90BF90AF909F90E5
:1022C0008F907F906F9008952F923F924F925F92E0
:1022D0006F927F928F929F92AF92BF92CF92DF9236
:1022E000EF92FF920F931F93CF93DF93CDB7DEB79B
:1022F00029970FB6F894DEBF0FBECDBF89831B01AF
:102300002C833D834E835F838091BB049091BC04FA
:102310000E940E0E9981892F90E0880F991F9B8350
:102320008A83A1E0A8873DEC832E3CEC932EA92C58
:102330003DE3B32EB1E0B9830E94120390938E0463
:1023400080938D048130910509F5E981E111E5C0A3
:102350008091BB049091BC0429960FB6F894DEBF1F
:102360000FBECDBFDF91CF911F910F91FF90EF90E6
:10237000DF90CF90BF90AF909F908F907F906F90A5
:102380005F904F903F902F900C940E0E82309105ED
:10239000C9F4A5019401D1016D917D918D919C911C
:1023A0000E94E6276B017C012C813D814E815F817B
:1023B0000E94F42887FD1BC0F101C082D182E28215
:1023C000F38215C0039799F4D1012D913D914D9160
:1023D0005C91C501B4010E94E7276B017C012DECE3
:1023E0003CEC47EC52E40E94DC2518162CF7F885EB
:1023F000F11107C080918D0490918E04892B09F40E
:102400008AC040E060E08091BB049091BC040E94CF
:10241000FD0DE091C104F091C2048A819B81E80F17
:10242000F91F608171818091BB049091BC040E946E
:10243000E51041E060E08091BB049091BC040E94F3
:10244000FD0D61E671E08091BB049091BC040E9497
:10245000E5106091BD04615041E08091BB04909112
:10246000BC040E94FD0D63E671E08091BB04909175
:10247000BC040E94E5106091BD047091BE04769585
:102480006795655041E08091BB049091BC040E9427
:10249000FD0DA091BB04B091BC04B987A887F101E0
:1024A000C080D180E280F380A7019601C701B60108
:1024B0000E94F92865E671E081111AC026013701F2
:1024C000E89477F82FEF3FEF4FE75FE7C301B201E2
:1024D0000E94F928811129C02FEF3FEF4FE75FE7F6
:1024E000C301B2010E94DC251816FCF469E671E014
:1024F000888599850E948A10B8018091BB049091CB
:10250000BC040E94E5106AE573E08091BB049091E1
:10251000BC040E94E51018860FCF812C912C90E806
:10252000A92E9FE3B92E198262CF2FEF3FEF4FE71D
:102530005FE4C701B6010E94F42818161CF46DE68A
:1025400071E0D6CF2FEF3FEF4FE75FECC701B60149
:102550000E94DC2587FDF3CF20E030E0A901C70110
:10256000B6010E94DC2587FF0FC0A885B985ED91D3
:10257000FC9111970190F081E02D6DE2CD0109955C
:10258000F7FAF094F7F8F0942AE037ED43EA5BE3CA
:10259000C701B6010E94E7272B013C010E94C52814
:1025A0006B017C010E94E1259B01AC01C301B201DA
:1025B0000E94E6272B013C012AE0B701A60188858D
:1025C00099850E949910A885B985ED91FC91119784
:1025D0000190F081E02D6EE2CD01099520E030E020
:1025E00040E251E4C301B2010E9442262B013C01AA
:1025F0000E94C5286B01F12CE12C2AE0B701A6014D
:10260000888599850E949910C701B6010E94E1252D
:102610009B01AC01C301B2010E94E62720E030E03B
:1026200040E251E40E9442260E94C528AB0170E0BE
:1026300060E02AE0888599850E9499105DCF0C940E
:102640009A29CF93DF93EC010E94120ACE01DF9109
:10265000CF910C949A290F931F93CF93DF93EC01A2
:1026600088819981009759F02A813B812617370785
:1026700030F081E0DF91CF911F910F9108958B0190
:102680006F5F7F4F0E94232A009759F099838883B8
:102690001B830A832C813D81232B59F7FC01108277
:1026A000E8CF80E0E7CFCF93DF936330710508F484
:1026B0005BC0EC018881082E000C990B0E94E02A77
:1026C000815691098331910508F04EC0FC01E5590E
:1026D000FC4E0C94E0279613B413B413B213B41346
:1026E0007E13B413B413B4138213B413B413A1132D
:1026F000B013AE13B413B413B413AC1382E0DF9170
:10270000CF9108958981082E000C990B0E94E02A30
:102710008136910559F18A81082E000C990B0E948F
:10272000E02A8E36910521F187E0E9CF8981082ED4
:10273000000C990B0E94E02A80379105D9F088E0BF
:10274000DECF8A81082E000C990B0E94E02A823786
:10275000910591F085E0D3CF89E0D1CF8AE0CFCF4A
:102760008BE0CDCF8CE0CBCF80E0C9CF81E0C7CF6D
:1027700086E0C5CF84E0C3CF83E0C1CF85ED8093F1
:10278000BC008091270490912804A0912904B09165
:102790002A040796A11DB11D23E0B695A79597952C
:1027A00087952A95D1F72091BC0024FD03C0109293
:1027B000250408954091270450912804609129042C
:1027C00070912A04452B462B472B69F30097A105EE
:1027D000B10541F02AE22A95F1F700C00197A1095D
:1027E000B109E1CF809126040C9438052F923F92D5
:1027F0004F925F926F927F928F929F92AF92BF9211
:10280000CF92DF92EF92FF920F931F93CF93DF93BC
:10281000CDB7DEB7A6970FB6F894DEBF0FBECDBF1B
:102820004C015B011A018AE0E1E7F1E0DE0111965B
:1028300001900D928A95E1F77A01412C512C3201D9
:1028400084010C5F1F4F1A8F098F0F5F1F4F1C8F62
:102850000B8F025011091E8F0D8F0150110918A303
:102860000F8F015011091AA309A3D5018C91882358
:1028700009F476C1F1018081882309F471C1BE0198
:102880006F5F7F4FC5010E94F82AA80EB91EE80E9F
:10289000F91ED5013C91332341F3F50131966F01C7
:1028A000CA18DB0821913217D1F38A0D9B1DFC0158
:1028B0008081893509F4B4C0BCF58A3209F48EC030
:1028C0003CF48701813209F49FC010E000E094C01D
:1028D000843409F4E7C08D34C1F7D7018C9180535B
:1028E0008A3008F0B2C0B3E0CB16D10408F4A9C016
:1028F000E218F308C701A6960FB6F894DEBF0FBE24
:10290000CDBFDF91CF911F910F91FF90EF90DF909E
:10291000CF90BF90AF909F908F907F906F905F907F
:102920004F903F902F9008958D3609F4BFC054F416
:10293000A6016D8D7E8D883641F6C7010E946C011F
:102940008C015AC0833709F4B5C08A3709F0BDCF6E
:10295000F1E0CF16D10409F0BDC0D7018C918B32C4
:1029600009F4ACC08D3209F0AEC044244A94542C12
:10297000320142E050E0BE016F5E7F4F87010F5F82
:102980001F4FC8010E946C010196080F191F42E0F9
:1029900050E0BE01655F7F4FC8010E946C01FC01E1
:1029A000298930E0ACE3B0E00E94A1276BA37CA3AF
:1029B0008DA39EA32B85DC01CB01820F911DA11D50
:1029C000B11D9C01AD01C301B2010E94B0272B01D2
:1029D0003C010E0F1F1F021913090EC08701F801D9
:1029E0008191882311F028130CC00E191F090F5F65
:1029F0001F4FFFEFCF1ADF0A0115110509F043C081
:102A000077CF8F01ECCF8F01F8018191882311F0EE
:102A10002817C9F30E191F092FEFC21AD20AECCFDB
:102A200034E0C316D10450F083E0C81AD108AC0CCE
:102A3000BD1CEC0CFD1C43E0C42ED12CA601B4013E
:102A40007CCFA60169A17AA178CFE4E0CE16D104AB
:102A500008F04ECFF1E0CF16D104E1F4F701AF0159
:102A60004F5F5F4F8081281313C08F010E191F091C
:102A70000330110508F43CCFB801C7010E9453137D
:102A8000D40111968C93AC0CBD1CE00EF11EEDCE62
:102A9000FA01E5CFB601C7010E945313F401818307
:102AA0008601AACFA6016F8D78A147CFA601698DB7
:102AB0007A8D43CFA6016B8D7C8D3FCF412C512C5D
:102AC0003201439456CF8F7D8A3509F011CF01E052
:102AD00010E0D9CF98E0692E712C00E110E0512C64
:102AE000412C96E0969DB001979D700D11246C5578
:102AF0007E4F46E050E0CE010B960E947623AB85D8
:102B0000BC85B88FAF8B44E050E0BD01C7010E9487
:102B10008823009781F44D845E846F8478888F8940
:102B2000988D0E947F238C01892B09F065CF412C61
:102B3000512C320161CF97FD11C02301BFEF4B1A19
:102B40005B0A38016418750876946794640C751CE8
:102B50004016510630F210E000E0E9CF8301F1CFDA
:102B6000C4010E94A5045B016C01ACE3B0E0A301C9
:102B700092010E94352796018501061B170B280B31
:102B8000390BB901A801CE0141960E945E0886E08A
:102B9000FE017196DE011B9601900D928A95E1F778
:102BA00086E0FE013B96DE01519601900D928A95DA
:102BB000E1F786E0FE017196D40101900D928A95AD
:102BC000E1F796CE1F920F920FB60F9211242F931A
:102BD0003F938F939F93AF93BF9380912B049091DA
:102BE0002C04A0912D04B0912E043091B00323E069
:102BF000230F2D3758F50196A11DB11D2093B00369
:102C000080932B0490932C04A0932D04B0932E0456
:102C10008091B1039091B203A091B303B091B4033A
:102C20000196A11DB11D8093B1039093B203A093AF
:102C3000B303B093B403BF91AF919F918F913F9134
:102C40002F910F900FBE0F901F90189526E8230F1D
:102C50000296A11DB11DD2CF1F920F920FB60F92F7
:102C600011242F933F934F935F936F937F938F9391
:102C70009F93AF93BF93EF93FF93E0910301F09184
:102C800004010995FF91EF91BF91AF919F918F91B1
:102C90007F916F915F914F913F912F910F900FBE58
:102CA0000F901F9018951F920F920FB60F9211243C
:102CB0002F933F934F935F936F937F938F939F9344
:102CC000AF93BF93EF93FF93E0910101F091020165
:102CD0000995FF91EF91BF91AF919F918F917F9156
:102CE0006F915F914F913F912F910F900FBE0F9079
:102CF0001F9018951F920F920FB60F9211242F93C9
:102D00003F934F935F936F937F938F939F93AF9373
:102D1000BF93EF93FF938091B900887F803609F4C9
:102D20004AC0F0F5883209F4A7C018F5803109F4DB
:102D30009BC0B8F4882309F4F9C0883009F494C022
:102D4000FF91EF91BF91AF919F918F917F916F9183
:102D50005F914F913F912F910F900FBE0F901F9059
:102D60001895883109F488C0803251F780930304A4
:102D700014C0803409F49DC040F48033B9F3883323
:102D8000F9F68093030485ECB0C0803509F485C062
:102D9000883509F496C0883499F60E94BE13D0CFC6
:102DA000883909F48CC038F5883729F050F4883612
:102DB00011F0803729F683E0809325041092A50353
:102DC00057C0883809F47BC0803919F0803809F081
:102DD000B7CF8091A503803208F071C0E091A503C0
:102DE00081E08E0F8093A5038091BB00F0E0EB574C
:102DF000FC4F80833DC0803B39F0E0F4803A09F419
:102E000079C0883A09F09CCF84E080932504109221
:102E1000840310928303E091B703F091B8030995FE
:102E20008091830381110FC081E08093830310920E
:102E3000630309C0803C09F4A6CF883C09F4A3CF02
:102E4000883B09F07DCFE091840381E08E0F809371
:102E50008403F0E0ED59FC4F80818093BB0090919A
:102E600084038091830329C0809100048093BB0078
:102E700085EC8093BC0064CF9091020480910104A2
:102E8000981758F5E091020481E08E0F80930204B8
:102E9000F0E0E152FC4F8081E9CFE091020481E053
:102EA0008E0F809302048091BB00F0E0E152FC4F52
:102EB000808390910204809101049817C8F285E8FC
:102EC000D8CFE091020481E08E0F809302048091BC
:102ED000BB00F0E0E152FC4F80838091040481113B
:102EE0005CCF81E08093FF0384EA8093BC00109262
:102EF000250426CF85EC8093BC0010922504809198
:102F0000A503803230F4E091A503F0E0EB57FC4FCD
:102F100010826091A50370E0E091B503F091B603D3
:102F200085E893E009951092A5030ACF1092030457
:102F300034CF1F920F920FB60F9211241F932F932D
:102F40003F934F935F936F937F938F939F93AF9331
:102F5000BF93CF93DF93EF93FF9380916103882317
:102F600009F474C010916003C0910001D0E0209179
:102F7000780430E0A1E4B0E00E94A1272FEF30E018
:102F800040E050E00E941627C21BD30B1C171D0601
:102F90002CF061E08FE594E00E94DF09109160035E
:102FA000C0910001D0E02091580430E0A1E4B0E0ED
:102FB0000E94A1272FEF30E040E050E00E9416274A
:102FC000C21BD30B1C171D062CF061E08FE394E0AD
:102FD0000E94DF09809160038F5F8093600390916E
:102FE000600380910001981720F010926103109205
:102FF000600380913E048823A9F020913C04309125
:103000003D042F5F3F4F30933D0420933C042D320D
:1030100081E0380790F580913B0461E020FF60E09B
:103020000E944503FF91EF91DF91CF91BF91AF9146
:103030009F918F917F916F915F914F913F912F91D0
:103040001F910F900FBE0F901F90189590916003E5
:1030500080910001981758F060E08FE394E00E949F
:10306000DF0960E08FE594E00E94DF09C2CF809124
:1030700060038F5F80936003BCCF213D374090F2A7
:1030800010923D0410923C04CDCF1F920F920FB6C8
:103090000F9211244F925F926F927F928F929F9224
:1030A000AF92BF92CF92DF92EF92FF922F933F9316
:1030B0004F935F936F937F938F939F93AF93BF9340
:1030C000EF93FF93CF93DF93CDB7DEB72697DEBFA5
:1030D000CDBF8091AF038F5F8093AF0380917E045B
:1030E00090917F040E94440C6093AB037093AC03F7
:1030F0008093AD039093AE0380917E0490917F0402
:103100009E838D830E94440C6DEF8D819E810E9471
:10311000190DB0E0A0E08115E0E89E07A105B1051A
:1031200009F401C1ED81FE8187849088A188B2886D
:10313000FCE29F1AF1E0AF0AB1086C017D013EE0AC
:10314000CC0CDD1CEE1CFF1C3A95D1F7ED81FE8105
:1031500083A994A9092E000CAA0BBB0B44E1880F8C
:10316000991FAA1FBB1F4A95D1F7C81AD90AEA0AA4
:10317000FB0AA5A9B6A9A50194010E944027C61A79
:10318000D70AE80AF90AC701B601705C8F4F9F4F52
:10319000412C50E8552E612C712CA30192010E9404
:1031A000162729833A834B835C83ED81FE81A2A994
:1031B000B0E0A50194010E94352720E038E040E00E
:1031C00050E00E94162769017A01F0E8DF0EE11C49
:1031D000F11CED81FE81A7A90A2E000CBB0BA501F5
:1031E00094010E944027812CE4E09E2EA12CB12C5A
:1031F000A50194010E941627CA01B901A7019601F1
:103200000E94B027A50194010E941627405E5F4FDF
:10321000ED81FE81A0A9B1A90E944027705E8F4F69
:103220009F4F20E030E440E050E00E941627698183
:103230007A818B819C810E94B0276B017C01A30164
:1032400092010E941627CA01B9010E94B0279B0172
:10325000AC01F7E05595479537952795FA95D1F745
:10326000ED81FE81A7A5B0E00E94352720E130E086
:1032700040E050E00E941627C21AD30AE40AF50A79
:10328000F7FE03C0C12CD12C7601C701B601613015
:1032900071058105F9E19F0724F060E070E080E0AE
:1032A00099E12CE095958795779567952A95D1F7C3
:1032B0000E94E12520E030E040E85AE30E944226E7
:1032C0006093A7037093A8038093A9039093AA0324
:1032D00087EF92EC909385008093840026960FB63A
:1032E000F894DEBF0FBECDBFDF91CF91FF91EF917C
:1032F000BF91AF919F918F917F916F915F914F910E
:103300003F912F91FF90EF90DF90CF90BF90AF90C3
:103310009F908F907F906F905F904F900F900FBE17
:103320000F901F90189560E070E080EC9FE7C8CF89
:10333000AF92BF92CF92DF92EF92FF920F931F93C3
:10334000CF93DF938FE2E82E84E0F82EF70113820B
:10335000128288EE93E0A0E0B0E084839583A68398
:10336000B7838FE291E091838083C5EDD4E01B8227
:103370001A8281E591E09983888387E08C838FEFBF
:103380008D8386E08E8385E08F8384E0888789E063
:10339000898788E08A871B861C861D861E861F8675
:1033A00061E080E10E94160EE2E8F4E089E491E039
:1033B00091838083D2AFC1AF84E190E094AF83AFBB
:1033C00084E090E096AF85AF1092C40488E0E3E219
:1033D000F1E0A5ECB4E001900D928A95E1F7DCE014
:1033E000D093C30485E091E09093C2048093C1041C
:1033F0008FE090E00E94FE288C0191E4C92E91E0BC
:10340000D92EF801D182C0828DE08283C1E0C383CE
:10341000C48315821682178210862AE0A22EB12C50
:10342000B286A186138614861586168660E00E94F1
:10343000B8031093CE040093CD048FE090E00E9477
:10344000FE288C01FC01D182C0828AE08283C38382
:10345000C4831582168217821086B286A1861386CF
:1034600014861586168660E00E94B8031093D00477
:103470000093CF048FE090E00E94FE288C01FC01B5
:10348000D182C082D283C383C483158216821782FD
:10349000108682E390E092878187138614861586D2
:1034A000168660E08CE00E94B8031093D20400936B
:1034B000D10483E090E00E94FE28FC01F182E082CA
:1034C000128290938104809380048BE390E00E94A9
:1034D000FE28FC011182108213821282158214824E
:1034E0001782168211861086138A148A158A168A04
:1034F00090937F0480937E04EFE5F4E083E0808383
:10350000C68FEFE3F4E08BE08083C68F81E1878F85
:10351000EBE3F4E080E1808312821182C383DF91C8
:10352000CF911F910F91FF90EF90DF90CF90BF90C0
:10353000AF900895CF93DF93CDB7DEB7C154D109D3
:103540000FB6F894DEBF0FBECDBF789484B582600D
:1035500084BD84B5816084BD85B5826085BD85B537
:10356000816085BD80916E00816080936E001092B5
:103570008100809181008260809381008091810030
:1035800081608093810080918000816080938000C1
:103590008091B10084608093B1008091B00081601F
:1035A0008093B00080917A00846080937A0080914B
:1035B0007A00826080937A0080917A0081608093A3
:1035C0007A0080917A00806880937A001092C1001E
:1035D00064E084E10E94160E0E9421056E0121E242
:1035E000C20ED11C40E050E0BA01C6010E945E0844
:1035F00040E250E069E172E0CE0101967C010E9458
:1036000096234BE751E0B701C6010E94F61340E252
:1036100050E060E172E0C7010E94962347E851E064
:10362000B701C6010E94F613009180041091810435
:103630006FE0C8010E94240F87FD05C0D8011296D3
:103640008C91882359F08091800490918104FC0131
:103650002281211103C0B6010E94660F00918004EF
:10366000109181046EE0C8010E94240F87FD05C0FF
:10367000D80112968C91882371F0009180041091EA
:1036800081046EE0C8010E94240F482F4F776EE03E
:10369000C8010E94340880918004909181040E94A6
:1036A000870A29833A834B835C836D837E83C701BA
:1036B0000E94A5044B015C01C6010E94A504861668
:1036C0009706A806B90638F4B60180918004909157
:1036D00081040E94660F00918004109181046FE0C4
:1036E000C8010E94240F482F477F6FE0C8010E9445
:1036F000340800918004109181046EE0C8010E949A
:10370000240F8C7B482F44606EE0C8010E9434086F
:1037100000917E0410917F04F801A280B380A1146F
:10372000B10461F580819181009711F00E949A297E
:1037300086E090E00E94FE285C0186E7D5018C932C
:103740008FE294E012969C938E93119713961C929D
:10375000139780E290E015969C938E931497F8014E
:10376000B182A0820E94210581E0D50113968C933D
:10377000C5010E943F0781114BC0FFCFF501838532
:103780008F3F49F061E00E94B80361E0D5011B96CC
:103790008C910E944503F50180819181892B09F468
:1037A0002DC39FB6F8948091A603811127C0EDE444
:1037B000F2E08491E1E6F2E09491E82FF0E0EE0F80
:1037C000FF1FEB5DFD4FA591B491EC91E92321F42E
:1037D00061E08AE00E94450361E08AE00E94B8034C
:1037E0008CB580618CBD8CB580648CBD61E08DE052
:1037F0000E94B80361E08BE00E94B8038091A603A9
:103800008F5F8093A6039FBE81E0D5015B968C936A
:1038100060EDC8010E94410D90E0B0E0A0E0F80129
:1038200083879487A587B68780369105A105B10562
:1038300009F0A3CF46EB60EEC8010E94470A6AE098
:1038400070E080E090E00E94190463EFC8010E94DC
:10385000410D80FDF4CF68E8C8010E943B0DD801FE
:1038600058969C938E9357976AE8C8010E943B0D27
:10387000F801928F818F6CE8C8010E943B0DD8013E
:103880005C969C938E935B976EE8C8010E943B0DFB
:10389000F801968F858F60E9C8010E943B0DD80121
:1038A00090969C938E935F9762E9C8010E943B0DAE
:1038B000F80192A381A364E9C8010E943B0DD801DD
:1038C00094969C938E93939766E9C8010E943B0D52
:1038D000F80196A385A368E9C8010E943B0DD801B1
:1038E00098969C938E9397976AE9C8010E943B0D26
:1038F000F80192A781A76CE9C8010E943B0DD8018D
:103900009C969C938E939B976EE9C8010E943B0DF9
:10391000F80196A785A761EAC8010E94410DD80168
:103920009F968C9361EEC8010E943B0DF80191AB0C
:1039300080AB63EEC8010E94410DD801D2968C93F2
:1039400064EEC8010E94410DB82E65EEC8010E94C8
:10395000410DBB2DE0E1BE02900111248F70282B98
:10396000D801D4963C932E93D39766EEC8010E945B
:10397000410DB82E65EEC8010E94410DBB2DE0E15E
:10398000BE029001112490E044E0959587954A95F8
:10399000E1F7822B932BD801D6969C938E93D597E3
:1039A00067EEC8010E94410DF80187AB8DEE81AF33
:1039B00082AD8F71806A82AF80AD807C8F7780AF5F
:1039C00040E064EFC8010E94470AD801DA964C91A2
:1039D00042954695477062EFC8010E94470AF80178
:1039E00080AD482F4770F0E24F9FA0011124282F8F
:1039F000269526952695277094E0299F90011124FD
:103A0000422B87FB882780F9482B65EFC8010E946D
:103A1000470AD801D9968C91482F4770B0E24B9F46
:103A2000A0011124282F2695269526952770E4E0DD
:103A30002E9F90011124422B829586958695837046
:103A4000482B64EFC8010E94470A64E670E080E0FA
:103A500090E00E9419048FE594E00E94F80960E06C
:103A600080915E040E94B8038FE394E00E94F809FD
:103A70008DEE97E09093D4048093D3040E9472104B
:103A80002DB73EB72C5231090FB6F8943EBF0FBE8A
:103A90002DBFADB7BEB711968CE2EFE8F4E0019010
:103AA0000D928A95E1F7E091D304F091D404099541
:103AB0000091BB041091BC048DB79EB78C960FB6D5
:103AC000F8949EBF0FBE8DBF6091C404677098E0EC
:103AD000699FB00111246064C8010E94FA0D55EC81
:103AE000A52E54E0B52E6DEC862E64E0962ED50101
:103AF0006D915D01D801ED91FC910190F081E02D77
:103B0000C80109958A149B0491F78091BB04909198
:103B1000BC040E940E0E61E080913B040E94B80339
:103B200060E080913B040E94450310923E04F894AB
:103B300010928000109281008091810085608093B6
:103B4000810087EF92EC90938500809384008091B0
:103B50006F00816080936F001092B0001092B100EE
:103B60001092B2008FEE8093B3008091B10082601A
:103B70008093B1008091B10082608093B100809108
:103B80007000826080937000789462E082E00E940E
:103B9000B80361E080E10E94B80387EE99E090935A
:103BA0000201809301018091690083608093690024
:103BB000E89A61E080E10E94B803FE01B396FCAF91
:103BC000EBAF0E94C40E8091AF03882309F4C6C0F6
:103BD00080918004909181040E94870A122FB32E55
:103BE000042FA52E962E872E2DAB3EAB4FAB58AF94
:103BF00069AF7AAF40E060E085ED94E00E94FD0D92
:103C00001F928F921F929F921F92AF92812F90E0EE
:103C10008053984F9F938F931F92BF921F920F9341
:103C200080E991E09F938F93FF92EF920E94072B80
:103C3000B70185ED94E00E94E5106091AB037091AF
:103C4000AC038091AD039091AE031AA219A222E1B8
:103C5000B22EABADBCADEB2D1D92EA95E9F7860116
:103C600022E044E00E9458238FEF8F938FED8F93D3
:103C7000DF92CF928EEA91E09F938F93FF92EF9223
:103C80000E94072B41E060E085ED94E00E94FD0D6D
:103C9000B70185ED94E00E94E5106091A703709153
:103CA000A8038091A9039091AA031AA219A2ABAD0F
:103CB000BCAD1D92BA94E9F721E044E00E9458237C
:103CC0001F9285E28F93DF92CF9284EB91E09F93D6
:103CD0008F93FF92EF920E94072BEDB7FEB7B0963D
:103CE0000FB6F894FEBF0FBEEDBF42E060E085ED79
:103CF00094E00E94FD0DB70185ED94E00E94E5106F
:103D000043E060E08FE594E00E94ED100DB71EB730
:103D100080915E040E94A6029F938F9389EB91E0AD
:103D20009F938F93FF92EF920E94072B42E066E0F1
:103D300085ED94E00E94FD0DB70185ED94E00E94B1
:103D4000E51042E06AE08FE394E00E94ED100FB6C8
:103D5000F8941EBF0FBE0DBF1092AF030E94120356
:103D600090938E0480938D04019709F0F4C32DB7CE
:103D70003EB722963FAF2EAF22978091BD0490911F
:103D8000BE04ADB7BEB7A81BB90B0FB6F894BEBF43
:103D90000FBEADBF8DB79EB701968FAF692E8091D4
:103DA000BB049091BC040E940E0E512C412C222485
:103DB0002394312C11E0712C0E94C40E0E94120336
:103DC00090938E0480938D048230910509F03EC05B
:103DD0007720C9F17A94472C512C8091BF0490919F
:103DE000C0044816590608F44AC4481A590AF20190
:103DF00031962F0122242394312C4AC061E084851E
:103E00000E94B803F50182858B7FD1F460E0848540
:103E10000E944503F50185858F3F49F061E00E94CE
:103E2000B80361E0D5011D968C910E944503F50110
:103E300086858F3F09F4E8CC60E00E94B803E4CCAB
:103E400061E08485E5CF7090C304C4CF83309105D1
:103E500009F063C0872D90E001962091C30473940C
:103E60002817190609F00CF4712C472C512C80915D
:103E7000BF049091C0044816590608F403C4481AB8
:103E8000590A92012F5F3F4F290122242A94322C94
:103E90000091BF04040D1A8219821C821B821E82AB
:103EA0001D8270E060E0C7010E942B1329813A81D6
:103EB000811163C32115310519F0C9010E949A29A6
:103EC0001A8219821E821D821C821B82912C812CD7
:103ED00010E28091BD049091BE048816990608F006
:103EE00054C319A31AA2AD80BE803FEFA31AB30A30
:103EF000B501C7010E942B13882359F029813A810B
:103F00008D819E81B601820F931F0E94F12ABE828D
:103F1000AD824FEF841A940ADCCF8130910509F00D
:103F200025C33BE0371508F4B3CFE72DF0E0E556A5
:103F3000F04E0C94E027A71FF3202E2253225F227D
:103F4000692273227C22862290229A22B3228091B7
:103F5000BB049091BC040E940E0E41E04EAF0FE1F5
:103F6000A02EB12C912C812C0FE814E01DAE0E94E4
:103F7000120390938E0480938D048130910509F093
:103F8000C0C0D8018D919C912DAD2F5F213071F073
:103F9000223009F460C0909394048093930480913C
:103FA000BB049091BC040E940E0E72CF90939004BB
:103FB00080938F04BCE0AB2EB12C88248394912C89
:103FC00001E914E040E060E08091BB049091BC0402
:103FD0000E94FD0DE091C104F091C20460817181E5
:103FE0008091BB049091BC040E94E51041E060E028
:103FF0008091BB049091BC040E94FD0D80919404BB
:104000008F93809193048F93D80111968C9111977F
:104010008F938C918F93809190048F9380918F04D4
:104020008F93E9EDF1E0FF93EF93FF92EF920E94FF
:10403000072BB7018091BB049091BC040E94E5104E
:104040008DB79EB70A960FB6F8949EBF0FBE8DBF70
:1040500091E09DAFC6C09093920480939104FAE2E0
:10406000AF2EF8E0BF2EA4EE8A2EA7E09A2E03E929
:1040700014E040E060E08091BB049091BC040E9499
:10408000FD0DE091C104F091C204608171818091C5
:10409000BB049091BC040E94E51041E060E0809177
:1040A000BB049091BC040E94FD0DD80111968C9127
:1040B00011978F938C918F93809192048F9380911D
:1040C00091048F93809190048F9380918F048F93AC
:1040D000E2EFF1E0FF93EF93FF92EF920E94072B44
:1040E000B7018091BB049091BC040E94E5108DB78C
:1040F0009EB70A960FB6F8949EBF0FBE8DBF92E092
:10410000A8CF82309105E1F4F80180819181019777
:104110008815990560F091838083BEADB11107C009
:1041200080918D0490918E04892B09F45AC0FDADC5
:10413000F13009F447CF88F0F23009F052C099CF3E
:10414000039759F7D8018D919C9111970196A81664
:10415000B90668F38D939C93E0CF40E060E08091D6
:10416000BB049091BC040E94FD0DE091C104F0914C
:10417000C204608171818091BB049091BC040E9453
:10418000E51041E060E08091BB049091BC040E9486
:10419000FD0D809194048F93809193048F9380916F
:1041A00092048F93809191048F93F80181818F9372
:1041B00080818F9320EC31E03F932F93FF92EF9219
:1041C0000E94072BB7018091BB049091BC040E9410
:1041D000E5108DB79EB70A960FB6F8949EBF0FBE36
:1041E0008DBF1EAEC4CE8091BB049091BC040E94D2
:1041F0000E0E88248394E7E1AE2EB12C05E914E07D
:10420000912C0E94120390938E0480938D04813030
:10421000910509F0B3C0D8018D919C9121E0290D41
:10422000213041F0223009F457C090939A048093D2
:104230009904B5CE909396048093950407E914E011
:104240007BE3A72EB12C40E060E08091BB0490910D
:10425000BC040E94FD0DE091C104F091C204628192
:1042600073818091BB049091BC040E94E51041E0F1
:1042700060E08091BB049091BC040E94FD0D809190
:104280009A048F93809199048F93D80111968C9101
:1042900011978F938C918F93809196048F93809137
:1042A00095048F93E6E2F2E0FF93EF93FF92EF9293
:1042B0000E94072BB7018091BB049091BC040E941F
:1042C000E5108DB79EB70A960FB6F8949EBF0FBE45
:1042D0008DBF99249394C0C09093980480939704C1
:1042E00009E914E06BE3A62EB12C40E060E0809178
:1042F000BB049091BC040E94FD0DE091C104F091BB
:10430000C204628173818091BB049091BC040E94BD
:10431000E51041E060E08091BB049091BC040E94F4
:10432000FD0DD80111968C9111978F938C918F93DD
:10433000809198048F93809197048F938091960435
:104340008F93809195048F93E1E4F2E0FF93EF93D4
:10435000FF92EF920E94072BB7018091BB049091CE
:10436000BC040E94E5108DB79EB70A960FB6F8946C
:104370009EBF0FBE8DBF52E0952E6EC0823091055C
:10438000D1F4F8018081918101979183808381101C
:1043900007C080918D0490918E04892B09F45CC034
:1043A00021E0921609F44FCF921690F032E0931666
:1043B00009F49BCF51C0039751F7D8018D919C917F
:1043C00011970196A816B90658F38D939C93DFCFE9
:1043D00040E060E08091BB049091BC040E94FD0D20
:1043E000E091C104F091C204628173818091BB04A9
:1043F0009091BC040E94E51041E060E08091BB0414
:104400009091BC040E94FD0D80919A048F9380913D
:1044100099048F93809198048F93809197048F9340
:10442000F80181818F9380818F932BE032E03F935D
:104430002F93FF92EF920E94072BB7018091BB044C
:104440009091BC040E94E5108DB79EB70A960FB6F6
:10445000F8949EBF0FBE8DBF812CD3CE1F9283E4F4
:104460008F938FEF8F938FED8F93ACE5B2E0BF9377
:10447000AF936F92FFADFF930E94072B0FAD162DE8
:1044800020E030E040EA51EC6BE974E082E00E9409
:1044900064112DB73EB7285F3F4F0FB6F8943EBF6B
:1044A0000FBE2DBFF5CC01E612E020E030E040EA7F
:1044B00051EC6FE974E083E00E946411E9CC04E6FA
:1044C00012E020E030E040EA51EC63EA74E084E07E
:1044D000F3CF07E612E020E030E040EA51EC67EA73
:1044E00074E085E0E9CF0AE612E020E030E0A901BF
:1044F0006BEA74E086E0E0CF01E612E020E030E015
:1045000040EA51EC6FEA74E087E0D6CF04E612E0AF
:1045100020E030E040EA51EC63EB74E088E0CCCF7F
:1045200007E612E020E030E040EA51EC67EB74E08F
:1045300089E0C2CF0E943C108091BB049091BC04E2
:104540000E940E0E2296EEADFFAD22970FB6F894A4
:10455000FEBF0FBEEDBF80E090E0892B09F431CBA8
:104560000E9400002ECB0E947210E6CF111190CC59
:10457000892B09F08DCC10E01FCC1E821D826BE5CB
:1045800073E0C9010E94F12AA1CC4201B12CA12CF7
:1045900010E02091BB043091BC04801691068CF58C
:1045A0004A2D61E0C9010E94FD0D2091C304809154
:1045B000BB049091BC0428151904B9F0B4F0920121
:1045C0002A0D3B1D220F331FE091C104F091C2045C
:1045D000E20FF31F608171810E94E510BFEF8B1A1B
:1045E0009B0AEFEFAE1ABE0AD4CF4D815E8169817E
:1045F0007A81DC01ED91FC910280F381E02D099537
:10460000EDCF072D10E004191509C801820D931D87
:104610006091BF047091C0040E94CC27482F60E0D5
:10462000C9010E94FD0D6AE573E08091BB04909181
:10463000BC040E94E5106091BF047091C004C801E1
:104640000E94CC27482F60E08091BB049091BC046D
:104650000E94FD0D8091BB049091BC04DC01ED91A2
:10466000FC910190F081E02D6091C404099589814D
:104670009A81009709F47FCF0E949A297CCF512C10
:10468000412CB8CB22242A94322C512C412C00CC22
:1046900080917E0490917F040E949A2980918004E9
:1046A000909181040E949A2982E894E00C94120A65
:1046B000EF920F931F93CF93DF93E80134E047FD10
:1046C00034E1042E000C550B57FF03C05195419562
:1046D0005109E32E022F242FAE010E94A523CE0103
:1046E000DF91CF911F910F91EF900895FB01DC01B5
:1046F00002C005900D9241505040D8F70895FC013A
:1047000005900020E9F7809590958E0F9F1F0895E2
:10471000FB01DC014150504030F08D910590801933
:1047200019F40020B9F7881B990B0895FB01DC01EF
:104730004150504048F005900D920020C9F701C04B
:104740001D9241505040E0F70895A9E0B0E0EBEA37
:10475000F3E20C944E276A01F22EB02E102FFBE3E9
:10476000AF2EA01608F41BE31F5F012F27E0AE0158
:104770004F5F5F4F0E940425BC018981982F99707B
:10478000913009F43FC09BE2E1FC04C09E2D917082
:10479000E0FC3AC05E2D5071E82FE87083FF46C000
:1047A00084E0911101C083E0EF2DE81B8F1508F024
:1047B000E0E0D6018E2F20E2552351F1992329F014
:1047C000D6019C93C60101966C0196012D5F3F4F67
:1047D000E2FE24C08EE4D6018C9391E411969C9362
:1047E000119712968C93D9018E2F90E281111BC0E4
:1047F000E20FF32FF11D10828EEF9FEF2996ECE070
:104800000C946A279DE2C6CF90E2C4CF2D938150CD
:104810008111FCCFCE0ED11CE0E0D0CF8EE6D601C8
:104820008C9391E6DBCF9D938150E0CF482F44706D
:1048300082FF3DC084E0911101C083E08F1510F428
:10484000EF2DE81BD6018E2F20E2552309F1992385
:1048500029F0D6019C93C60101966C0196012D5F4B
:104860003F4FE2FE1BC089E4D6018C938EE4119683
:104870008C93119786E412968C93D9018E2F90E237
:10488000882309F4B5CF9D938150FACF2D938150A1
:104890008111FCCFCE0ED11CE0E0D9CF89E6D60144
:1048A0008C938EE611968C93119786E6E4CF9B014C
:1048B00077FF02C030E020E0A1E0B0E0911102C03B
:1048C000B0E0A0E0F9013196AE0FBF1F8B2C912C08
:1048D000BB2009F461C05401EFEFAE1ABE0AAA0D65
:1048E000BB1DFA161B0619F014F04F2D4A1B51116F
:1048F00088C0E3FC59C07601A42FB0E2A1114FC0DB
:10490000C40ED11C992309F45BC040E0D601119676
:10491000F60190836D01552309F448C0012F060F5D
:104920009A81582F507184FF03C0913309F40150CC
:1049300010160CF047C0093008F008E0EEE2FE2E39
:104940005B01A01AB10885019194819491082F3FD1
:10495000320729F4D601FC92F60131966F016217F5
:10496000730794F1021713077CF5DB01A21BB30B4D
:10497000AA24A394B12CAC0EBD1EAA0DBB1D11968A
:104980008C9121503109D601119628153905F4F082
:10499000F60180836D01DBCFB12CA12CA0CFF701F4
:1049A000B1937F01A150AACF9111B0CFD601942F1E
:1049B00050E302C05D9391509111FCCFC40ED11C05
:1049C00040E0ACCF01E0BACF80E3DBCF62177307E2
:1049D00031F4963388F4953311F4552369F0F601D8
:1049E0008083FD01842F90E2811108C0A40FB11DC6
:1049F0001C9290E080E002CF81E3F1CF919381504F
:104A0000F3CF911183CF8ACF283008F027E03327E6
:104A1000DA01990F311D87FD9160009661057105DE
:104A200039F432602E5F3D9330E32A95E1F7089523
:104A30009F3F30F080387105610509F03C5F3C5FB5
:104A40003D93913008F08068911DDF93CF931F93C1
:104A50000F93FF92EF92192F987F9695E92F9695D5
:104A60009695E90FFF27EE53FF4F99273327EE2442
:104A7000FF24A701E70105900894079428F4360F56
:104A8000E71EF81E491F511D660F771F881F991FCB
:104A90000694A1F70590079428F4E70EF81E491F25
:104AA000561FC11D770F881F991F661F0694A1F717
:104AB0000590079428F4F80E491F561FC71FD11DF3
:104AC000880F991F661F771F0694A1F7059007941A
:104AD00020F4490F561FC71FD81F990F661F771F55
:104AE000881F0694A9F784911095177041F0D69508
:104AF000C79557954795F794E7941A95C1F7E8E657
:104B0000F0E0689415901591359165919591059017
:104B10007FE27395E118F10A430B560BC90BD009DC
:104B2000C0F7E10CF11E431F561FC91FD01D7EF4B4
:104B3000703311F48A95E6CFE894015030F0080FF5
:104B40000AF40027021708F4202F2395022F7A3346
:104B500028F079E37D932A95E9F710C07D932A9593
:104B600089F6069497956795379517951794E118E8
:104B7000F10A430B560BC90BD00998F023957E918F
:104B800073957A3308F070E37C932013B8F77E9125
:104B900070617D9330F0839571E37D9370E32A9586
:104BA000E1F71124EF90FF900F911F91CF91DF91CA
:104BB000992787FD909508950E941E2608F481E0AC
:104BC0000895E89409C097FB3EF490958095709500
:104BD00061957F4F8F4F9F4F9923A9F0F92F96E949
:104BE000BB279395F695879577956795B795F111BE
:104BF000F8CFFAF4BB0F11F460FF1BC06F5F7F4F5B
:104C00008F4F9F4F16C0882311F096E911C077236C
:104C100021F09EE8872F762F05C0662371F096E875
:104C2000862F70E060E02AF09A95660F771F881F44
:104C3000DAF7880F9695879597F90895990F0008E8
:104C4000550FAA0BE0E8FEEF16161706E807F9075E
:104C5000C0F012161306E407F50798F0621B730BF9
:104C6000840B950B39F40A2661F0232B242B252B7A
:104C700021F408950A2609F4A140A6958FEF811D1D
:104C8000811D08950E9455260C94C6260E94B826C0
:104C900038F00E94BF2620F0952311F00C94AF2627
:104CA0000C94B52611240C94FA260E94D72670F392
:104CB000959FC1F3950F50E0551F629FF001729FC1
:104CC000BB27F00DB11D639FAA27F00DB11DAA1FD0
:104CD000649F6627B00DA11D661F829F2227B00D1D
:104CE000A11D621F739FB00DA11D621F839FA00DA8
:104CF000611D221F749F3327A00D611D231F849FF8
:104D0000600D211D822F762F6A2F11249F5750404E
:104D10009AF0F1F088234AF0EE0FFF1FBB1F661FC9
:104D2000771F881F91505040A9F79E3F510580F092
:104D30000C94AF260C94FA265F3FE4F3983ED4F32C
:104D4000869577956795B795F795E7959F5FC1F736
:104D5000FE2B880F911D9695879597F9089597F9E1
:104D60009F6780E870E060E008959FEF80EC089511
:104D700000240A941616170618060906089500243A
:104D80000A9412161306140605060895092E0394B4
:104D9000000C11F4882352F0BB0F40F4BF2B11F428
:104DA00060FF04C06F5F7F4F8F4F9F4F089557FD87
:104DB0009058440F551F59F05F3F71F04795880F89
:104DC00097FB991F61F09F3F79F087950895121620
:104DD00013061406551FF2CF4695F1DF08C01616CC
:104DE00017061806991FF1CF86957105610508947D
:104DF0000895E894BB2766277727CB0197F9089594
:104E0000F999FECF92BD81BDF89A992780B5089592
:104E1000262FF999FECF1FBA92BD81BD20BD0FB6D6
:104E2000F894FA9AF99A0FBE01960895052E97FB09
:104E30001EF400940E942D2757FD07D00E947F2763
:104E400007FC03D04EF40C942D27509540953095D7
:104E500021953F4F4F4F5F4F0895909580957095E6
:104E600061957F4F8F4F9F4F08950E94A127A59F67
:104E7000900DB49F900DA49F800D911D1124089555
:104E8000B7FF0C9435270E943527821B930B08959A
:104E90002F923F924F925F926F927F928F929F924A
:104EA000AF92BF92CF92DF92EF92FF920F931F9338
:104EB000CF93DF93CDB7DEB7CA1BDB0B0FB6F894E9
:104EC000DEBF0FBECDBF09942A88398848885F8429
:104ED0006E847D848C849B84AA84B984C884DF809A
:104EE000EE80FD800C811B81AA81B981CE0FD11D7E
:104EF0000FB6F894DEBF0FBECDBFED010895A1E25D
:104F00001A2EAA1BBB1BFD010DC0AA1FBB1FEE1F43
:104F1000FF1FA217B307E407F50720F0A21BB30B8E
:104F2000E40BF50B661F771F881F991F1A9469F70A
:104F300060957095809590959B01AC01BD01CF0166
:104F40000895A29FB001B39FC001A39F700D811D62
:104F50001124911DB29F700D811D1124911D089582
:104F6000DB018F939F930E943527BF91AF91A29F42
:104F7000800D911DA39F900DB29F900D1124089557
:104F8000991B79E004C0991F961708F0961B881F9B
:104F90007A95C9F780950895AA1BBB1B51E107C0FC
:104FA000AA1FBB1FA617B70710F0A61BB70B881FB9
:104FB000991F5A95A9F780959095BC01CD01089548
:104FC000EE0FFF1F0590F491E02D09945058BB2778
:104FD000AA270E94FE270C94C6260E94B82638F005
:104FE0000E94BF2620F039F49F3F19F426F40C9458
:104FF000B5260EF4E095E7FB0C94AF26E92F0E944E
:10500000D72658F3BA17620773078407950720F06D
:1050100079F4A6F50C94F9260EF4E0950B2EBA2F30
:10502000A02D0B01B90190010C01CA01A0011124AE
:10503000FF27591B99F0593F50F4503E68F11A165A
:10504000F040A22F232F342F4427585FF3CF4695EB
:1050500037952795A795F0405395C9F77EF41F160D
:10506000BA0B620B730B840BBAF09150A1F0FF0FD7
:10507000BB1F661F771F881FC2F70EC0BA0F621FC3
:10508000731F841F48F4879577956795B795F795B3
:105090009E3F08F0B0CF9395880F08F09927EE0F48
:1050A0009795879508950E9467280C94C6260E94BC
:1050B000BF2658F00E94B82640F029F45F3F29F03F
:1050C0000C94AF2651110C94FA260C94B5260E942C
:1050D000D72668F39923B1F3552391F3951B550B0C
:1050E000BB27AA2762177307840738F09F5F5F4FBB
:1050F000220F331F441FAA1FA9F335D00E2E3AF0FA
:10510000E0E832D091505040E695001CCAF72BD011
:10511000FE2F29D0660F771F881FBB1F2617370762
:105120004807AB07B0E809F0BB0B802DBF01FF2794
:1051300093585F4F3AF09E3F510578F00C94AF269C
:105140000C94FA265F3FE4F3983ED4F38695779566
:105150006795B795F7959F5FC9F7880F911D96954D
:10516000879597F90895E1E0660F771F881FBB1FA9
:10517000621773078407BA0720F0621B730B840B56
:10518000BA0BEE1F88F7E09508950E94DF2688F09D
:105190009F5798F0B92F9927B751B0F0E1F0660FFB
:1051A000771F881F991F1AF0BA95C9F714C0B1303C
:1051B00091F00E94F926B1E008950C94F926672F2A
:1051C000782F8827B85F39F0B93FCCF3869577956B
:1051D0006795B395D9F73EF4909580957095619554
:1051E0007F4F8F4F9F4F08950E941E2608F48FEF28
:1051F00008950E941E26880B990B08950F931F9304
:10520000CF93DF938230910510F482E090E0E0913B
:10521000EF04F091F00430E020E0B0E0A0E030973F
:1052200099F42115310509F44AC0281B390B2430A3
:105230003105D8F58A819B816115710589F1FB01E2
:1052400093838283FE0111C04081518102811381C9
:1052500048175907E0F04817590799F4109761F07B
:1052600012960C93129713961C933296CF01DF91EE
:10527000CF911F910F9108950093EF041093F004C4
:10528000F4CF2115310551F04217530738F0A90129
:10529000DB019A01BD01DF01F801C1CFEF01F9CFB8
:1052A0009093F0048093EF04CDCFFE01E20FF31F43
:1052B000819391932250310939832883D7CF20914C
:1052C000ED043091EE04232B41F420911F01309125
:1052D00020013093EE042093ED0420911D013091C4
:1052E0001E012115310541F42DB73EB74091210132
:1052F00050912201241B350BE091ED04F091EE0456
:10530000E217F307A0F42E1B3F0B2817390778F09C
:10531000AC014E5F5F4F2417350748F04E0F5F1FFB
:105320005093EE044093ED04819391939FCFF0E06E
:10533000E0E09CCFCF93DF930097E9F0FC01329738
:1053400013821282A091EF04B091F004ED0130E0DD
:1053500020E01097A1F420813181820F931F2091CA
:10536000ED043091EE042817390709F061C0F0937D
:10537000EE04E093ED04DF91CF910895EA01CE179A
:10538000DF07E8F54A815B819E0141155105B1F7C0
:10539000E901FB83EA8349915991C40FD51FEC17AA
:1053A000FD0761F4808191810296840F951FE901C8
:1053B00099838883828193819B838A83F0E0E0E0F4
:1053C00012968D919C9113970097B9F52D913C9170
:1053D0001197CD010296820F931F2091ED04309119
:1053E000EE042817390739F6309751F51092F0047A
:1053F0001092EF04B093EE04A093ED04BCCFD383DE
:10540000C28340815181840F951FC817D90761F469
:105410004E5F5F4F88819981480F591F51834083A8
:105420008A819B81938382832115310509F0B0CF56
:10543000F093F004E093EF049ECFFD01DC01C0CFB8
:1054400013821282D7CFB0E0A0E0E9E2FAE20C9436
:105450004A278C01009751F4CB010E94FE288C0151
:10546000C801CDB7DEB7E0E10C946627FC01E60F7A
:10547000F71F9C0122503109E217F30708F49DC081
:10548000D901CD91DC911197C617D70798F0C53097
:10549000D10530F3CE0104978617970708F3C61B92
:1054A000D70B2297C193D1936D937C93CF010E9428
:1054B0009A29D6CF5B01AC1ABD0A4C018C0E9D1EF9
:1054C000A091EF04B091F004512C412CF12CE12C6F
:1054D000109731F58091ED049091EE0488159905AF
:1054E00009F05CC04616570608F058C080911D01AF
:1054F00090911E01009741F48DB79EB74091210114
:1055000050912201841B950BE817F90708F055C04C
:10551000F093EE04E093ED04F90171836083A0CF72
:105520008D919C91119712966C90129713967C9086
:105530001397A815B90559F56C0142E0C40ED11CAA
:10554000CA14DB0420F1AC014A195B09DA01129696
:10555000159780F06282738251834083D9016D93E5
:105560007C93E114F10471F0D7011396FC93EE9350
:10557000129776CF22968C0F9D1FF901918380831D
:10558000F301EFCFF093F004E093EF0469CF4816F6
:10559000590608F42C017D01D3019ACFCB010E945A
:1055A000FE287C01009749F0AE01B8010E94E82A6C
:1055B000C8010E949A29870153CF10E000E050CF24
:1055C0009111089581548A5108F4805E855A089596
:1055D000FB01DC0102C001900D9241505040D8F710
:1055E0000895FB01DC0101900D920020E1F7089580
:1055F000DC015D91552331F0FB010190051601108E
:10560000E1F7B9F7809590958A0F9B1F0895AEE05A
:10561000B0E0EDE0FBE20C9456270D891E8986E090
:105620008C831A8309838FEF9FE79E838D83AE015E
:10563000475E5F4F6F89788DCE0101960E942A2BBD
:105640002F813885020F131FF80110822E96E4E097
:105650000C947227ABE0B0E0E0E3FBE20C94482747
:105660007C013B018A01FC0117821682838181FF44
:10567000C8C1CE0101965C01F7019381F30193FD4E
:10568000859193FF81913F01882309F453C18532AD
:1056900039F493FD859193FF81913F01853229F47F
:1056A000B70190E00E941A2DE7CF912C212C312CCC
:1056B000FFE1F31538F08B3211F190F4803209F1EB
:1056C000833229F137FC3CC020ED280F2A3050F5F9
:1056D00036FE20C08AE0989E200D1124922E06C02E
:1056E0008D3291F0803371F7689430F8F30193FDB7
:1056F000859193FF81913F018111DACF21C0689498
:1057000031F8689432F8F2CF689433F8EFCF6894A8
:1057100034F8ECCFEAE02E9E200D1124222E68945E
:1057200035F8E4CF8E3229F436FC04C1689436F89B
:10573000DDCF8C3619F4689437F8D8CF8836B1F2BB
:10574000982F9F7D95549330E0F08336A1F18337F5
:10575000C1F1833509F063C02801F2E04F0E511CFE
:10576000F801C080D180692D70E036FC02C06FEF77
:105770007FEFC6010E94042D4C01689437F8820126
:105780000AC00C5F1F4FFFE3F98388248394912C98
:105790006501E89437F833FE2DC0522C8114910432
:1057A00071F5552009F468CFB70180E290E00E94BE
:1057B0001A2D5A94F6CFF801808189830E5F1F4F0E
:1057C000E4CF2801F2E04F0E511CF801C080D180D7
:1057D000692D70E036FC02C06FEF7FEFC6010E94BA
:1057E0000F2D4C018201D5CFB70180E290E00E94DD
:1057F0001A2D2A942814190409F0B0F7CECFF60117
:1058000037FC859137FE81916F01B70190E00E94CE
:105810001A2D51105A94F1E08F1A9108BFCF843697
:1058200019F0893609F077C0F80137FE6BC0608146
:105830007181828193810C5F1F4FF32DFF763F2E84
:1058400097FF09C090958095709561957F4F8F4F18
:105850009F4F689437F82AE030E0A5010E944A2D56
:10586000C82ECA188C2C432C36FE0CC0E89440F885
:10587000C91440F434FE05C032FC03C0F32DFE7E93
:105880004F2E892C44FE95C0FE01EC0DF11D808148
:10589000803309F087C0242D297E422E842D887004
:1058A000582E43FC95C040FE8FC09C2C821418F4E7
:1058B0002C0C922C981844FE91C0B70180E390E024
:1058C0000E941A2D42FE09C088E790E041FE02C006
:1058D00088E590E0B7010E941A2DC91408F48AC027
:1058E000CA94D12C9FEFC91AD90ACA0CDB1CF60145
:1058F00082916F01B70190E00E941A2DAC14BD0493
:10590000B1F74FCF60817181072E000C880B990B86
:105910000E5F1F4F92CFD32CE894D4F82AE030E0EA
:10592000853739F1232D297FD22E8F3601F148F4A6
:105930008835A9F0F701868197812B96E2E10C94D6
:105940006427803749F08837A9F7D4FE02C06894ED
:10595000D2F820E130E00DC06894D4F8F6CF34FEE0
:1059600003C0822F8660D82E20E132E002C028E0FA
:1059700030E0F801D7FE0FC0608171818281938190
:105980000C5F1F4FA5010E944A2DC82ECA183D2C3E
:10599000E89437F867CF6081718190E080E00E5F16
:1059A0001F4FF0CF42FC02C0839478CF839483943E
:1059B00075CF842D867809F471CFF6CFB70180E2D8
:1059C00090E00E941A2D83948214C0F3512C73CF5F
:1059D000522C5818821408F46ECFF8CF842D867894
:1059E00009F47BCF8BE241FE80E247FC8DE2B701F8
:1059F00090E071CFB70180E390E00E941A2D9A9455
:105A00006CCF8FEF9FEF99CFFC01059061507040F4
:105A10000110D8F7809590958E0F9F1F0895FC0177
:105A20006150704001900110D8F7809590958E0FCD
:105A30009F1F08950F931F93CF93DF93182F092F64
:105A4000EB018B8181FD09C01FEF0FEF812F902F9C
:105A5000DF91CF911F910F91089582FF14C02E8185
:105A60003F818C819D81281739073CF4E881F981B9
:105A7000CF0101969983888310838E819F8101963F
:105A80009F838E83E3CFE885F985812F0995892B44
:105A9000A1F3DACFFA01AA27283051F1203181F1A0
:105AA000E8946F936E7F6E5F7F4F8F4F9F4FAF4F26
:105AB000B1E03ED0B4E03CD0670F781F891F9A1F39
:105AC000A11D680F791F8A1F911DA11D6A0F711DED
:105AD000811D911DA11D20D009F468943F912AE0F9
